{
  "_format": "hh-sol-artifact-1",
  "contractName": "Restaurant",
  "sourceName": "contracts/Restaurant.sol",
  "abi": [
    {
      "inputs": [],
      "stateMutability": "nonpayable",
      "type": "constructor"
    },
    {
      "inputs": [
        {
          "internalType": "address",
          "name": "sender",
          "type": "address"
        },
        {
          "internalType": "uint256",
          "name": "tokenId",
          "type": "uint256"
        },
        {
          "internalType": "address",
          "name": "owner",
          "type": "address"
        }
      ],
      "name": "ERC721IncorrectOwner",
      "type": "error"
    },
    {
      "inputs": [
        {
          "internalType": "address",
          "name": "operator",
          "type": "address"
        },
        {
          "internalType": "uint256",
          "name": "tokenId",
          "type": "uint256"
        }
      ],
      "name": "ERC721InsufficientApproval",
      "type": "error"
    },
    {
      "inputs": [
        {
          "internalType": "address",
          "name": "approver",
          "type": "address"
        }
      ],
      "name": "ERC721InvalidApprover",
      "type": "error"
    },
    {
      "inputs": [
        {
          "internalType": "address",
          "name": "operator",
          "type": "address"
        }
      ],
      "name": "ERC721InvalidOperator",
      "type": "error"
    },
    {
      "inputs": [
        {
          "internalType": "address",
          "name": "owner",
          "type": "address"
        }
      ],
      "name": "ERC721InvalidOwner",
      "type": "error"
    },
    {
      "inputs": [
        {
          "internalType": "address",
          "name": "receiver",
          "type": "address"
        }
      ],
      "name": "ERC721InvalidReceiver",
      "type": "error"
    },
    {
      "inputs": [
        {
          "internalType": "address",
          "name": "sender",
          "type": "address"
        }
      ],
      "name": "ERC721InvalidSender",
      "type": "error"
    },
    {
      "inputs": [
        {
          "internalType": "uint256",
          "name": "tokenId",
          "type": "uint256"
        }
      ],
      "name": "ERC721NonexistentToken",
      "type": "error"
    },
    {
      "anonymous": false,
      "inputs": [
        {
          "indexed": true,
          "internalType": "address",
          "name": "owner",
          "type": "address"
        },
        {
          "indexed": true,
          "internalType": "address",
          "name": "approved",
          "type": "address"
        },
        {
          "indexed": true,
          "internalType": "uint256",
          "name": "tokenId",
          "type": "uint256"
        }
      ],
      "name": "Approval",
      "type": "event"
    },
    {
      "anonymous": false,
      "inputs": [
        {
          "indexed": true,
          "internalType": "address",
          "name": "owner",
          "type": "address"
        },
        {
          "indexed": true,
          "internalType": "address",
          "name": "operator",
          "type": "address"
        },
        {
          "indexed": false,
          "internalType": "bool",
          "name": "approved",
          "type": "bool"
        }
      ],
      "name": "ApprovalForAll",
      "type": "event"
    },
    {
      "anonymous": false,
      "inputs": [
        {
          "indexed": false,
          "internalType": "uint256",
          "name": "_fromTokenId",
          "type": "uint256"
        },
        {
          "indexed": false,
          "internalType": "uint256",
          "name": "_toTokenId",
          "type": "uint256"
        }
      ],
      "name": "BatchMetadataUpdate",
      "type": "event"
    },
    {
      "anonymous": false,
      "inputs": [
        {
          "indexed": false,
          "internalType": "uint256",
          "name": "_tokenId",
          "type": "uint256"
        }
      ],
      "name": "MetadataUpdate",
      "type": "event"
    },
    {
      "anonymous": false,
      "inputs": [
        {
          "indexed": true,
          "internalType": "address",
          "name": "from",
          "type": "address"
        },
        {
          "indexed": true,
          "internalType": "address",
          "name": "to",
          "type": "address"
        },
        {
          "indexed": true,
          "internalType": "uint256",
          "name": "tokenId",
          "type": "uint256"
        }
      ],
      "name": "Transfer",
      "type": "event"
    },
    {
      "inputs": [
        {
          "internalType": "uint256",
          "name": "restaurant_id",
          "type": "uint256"
        },
        {
          "internalType": "uint256",
          "name": "rating",
          "type": "uint256"
        },
        {
          "internalType": "string",
          "name": "message",
          "type": "string"
        }
      ],
      "name": "addReview",
      "outputs": [
        {
          "internalType": "uint256",
          "name": "",
          "type": "uint256"
        }
      ],
      "stateMutability": "nonpayable",
      "type": "function"
    },
    {
      "inputs": [
        {
          "internalType": "address",
          "name": "to",
          "type": "address"
        },
        {
          "internalType": "uint256",
          "name": "tokenId",
          "type": "uint256"
        }
      ],
      "name": "approve",
      "outputs": [],
      "stateMutability": "nonpayable",
      "type": "function"
    },
    {
      "inputs": [
        {
          "internalType": "address",
          "name": "owner",
          "type": "address"
        }
      ],
      "name": "balanceOf",
      "outputs": [
        {
          "internalType": "uint256",
          "name": "",
          "type": "uint256"
        }
      ],
      "stateMutability": "view",
      "type": "function"
    },
    {
      "inputs": [
        {
          "internalType": "string",
          "name": "tokenURI",
          "type": "string"
        }
      ],
      "name": "createRestaurant",
      "outputs": [
        {
          "internalType": "uint256",
          "name": "",
          "type": "uint256"
        }
      ],
      "stateMutability": "nonpayable",
      "type": "function"
    },
    {
      "inputs": [
        {
          "internalType": "uint256",
          "name": "tokenId",
          "type": "uint256"
        }
      ],
      "name": "getApproved",
      "outputs": [
        {
          "internalType": "address",
          "name": "",
          "type": "address"
        }
      ],
      "stateMutability": "view",
      "type": "function"
    },
    {
      "inputs": [
        {
          "internalType": "address",
          "name": "owner",
          "type": "address"
        },
        {
          "internalType": "address",
          "name": "operator",
          "type": "address"
        }
      ],
      "name": "isApprovedForAll",
      "outputs": [
        {
          "internalType": "bool",
          "name": "",
          "type": "bool"
        }
      ],
      "stateMutability": "view",
      "type": "function"
    },
    {
      "inputs": [],
      "name": "name",
      "outputs": [
        {
          "internalType": "string",
          "name": "",
          "type": "string"
        }
      ],
      "stateMutability": "view",
      "type": "function"
    },
    {
      "inputs": [
        {
          "internalType": "uint256",
          "name": "tokenId",
          "type": "uint256"
        }
      ],
      "name": "ownerOf",
      "outputs": [
        {
          "internalType": "address",
          "name": "",
          "type": "address"
        }
      ],
      "stateMutability": "view",
      "type": "function"
    },
    {
      "inputs": [
        {
          "internalType": "address",
          "name": "from",
          "type": "address"
        },
        {
          "internalType": "address",
          "name": "to",
          "type": "address"
        },
        {
          "internalType": "uint256",
          "name": "tokenId",
          "type": "uint256"
        }
      ],
      "name": "safeTransferFrom",
      "outputs": [],
      "stateMutability": "nonpayable",
      "type": "function"
    },
    {
      "inputs": [
        {
          "internalType": "address",
          "name": "from",
          "type": "address"
        },
        {
          "internalType": "address",
          "name": "to",
          "type": "address"
        },
        {
          "internalType": "uint256",
          "name": "tokenId",
          "type": "uint256"
        },
        {
          "internalType": "bytes",
          "name": "data",
          "type": "bytes"
        }
      ],
      "name": "safeTransferFrom",
      "outputs": [],
      "stateMutability": "nonpayable",
      "type": "function"
    },
    {
      "inputs": [
        {
          "internalType": "address",
          "name": "operator",
          "type": "address"
        },
        {
          "internalType": "bool",
          "name": "approved",
          "type": "bool"
        }
      ],
      "name": "setApprovalForAll",
      "outputs": [],
      "stateMutability": "nonpayable",
      "type": "function"
    },
    {
      "inputs": [
        {
          "internalType": "bytes4",
          "name": "interfaceId",
          "type": "bytes4"
        }
      ],
      "name": "supportsInterface",
      "outputs": [
        {
          "internalType": "bool",
          "name": "",
          "type": "bool"
        }
      ],
      "stateMutability": "view",
      "type": "function"
    },
    {
      "inputs": [],
      "name": "symbol",
      "outputs": [
        {
          "internalType": "string",
          "name": "",
          "type": "string"
        }
      ],
      "stateMutability": "view",
      "type": "function"
    },
    {
      "inputs": [
        {
          "internalType": "uint256",
          "name": "tokenId",
          "type": "uint256"
        }
      ],
      "name": "tokenURI",
      "outputs": [
        {
          "internalType": "string",
          "name": "",
          "type": "string"
        }
      ],
      "stateMutability": "view",
      "type": "function"
    },
    {
      "inputs": [
        {
          "internalType": "address",
          "name": "from",
          "type": "address"
        },
        {
          "internalType": "address",
          "name": "to",
          "type": "address"
        },
        {
          "internalType": "uint256",
          "name": "tokenId",
          "type": "uint256"
        }
      ],
      "name": "transferFrom",
      "outputs": [],
      "stateMutability": "nonpayable",
      "type": "function"
    }
  ],
  "bytecode": "0x60806040523480156200001157600080fd5b506040518060400160405280600a81526020017f52657374617572616e74000000000000000000000000000000000000000000008152506040518060400160405280600381526020017f525354000000000000000000000000000000000000000000000000000000000081525081600090816200008f919062000324565b508060019081620000a1919062000324565b5050506200040b565b600081519050919050565b7f4e487b7100000000000000000000000000000000000000000000000000000000600052604160045260246000fd5b7f4e487b7100000000000000000000000000000000000000000000000000000000600052602260045260246000fd5b600060028204905060018216806200012c57607f821691505b602082108103620001425762000141620000e4565b5b50919050565b60008190508160005260206000209050919050565b60006020601f8301049050919050565b600082821b905092915050565b600060088302620001ac7fffffffffffffffffffffffffffffffffffffffffffffffffffffffffffffffff826200016d565b620001b886836200016d565b95508019841693508086168417925050509392505050565b6000819050919050565b6000819050919050565b600062000205620001ff620001f984620001d0565b620001da565b620001d0565b9050919050565b6000819050919050565b6200022183620001e4565b6200023962000230826200020c565b8484546200017a565b825550505050565b600090565b6200025062000241565b6200025d81848462000216565b505050565b5b8181101562000285576200027960008262000246565b60018101905062000263565b5050565b601f821115620002d4576200029e8162000148565b620002a9846200015d565b81016020851015620002b9578190505b620002d1620002c8856200015d565b83018262000262565b50505b505050565b600082821c905092915050565b6000620002f960001984600802620002d9565b1980831691505092915050565b6000620003148383620002e6565b9150826002028217905092915050565b6200032f82620000aa565b67ffffffffffffffff8111156200034b576200034a620000b5565b5b62000357825462000113565b6200036482828562000289565b600060209050601f8311600181146200039c576000841562000387578287015190505b62000393858262000306565b86555062000403565b601f198416620003ac8662000148565b60005b82811015620003d657848901518255600182019150602085019450602081019050620003af565b86831015620003f65784890151620003f2601f891682620002e6565b8355505b6001600288020188555050505b505050505050565b612592806200041b6000396000f3fe608060405234801561001057600080fd5b50600436106100f55760003560e01c80636352211e11610097578063b88d4fde11610066578063b88d4fde14610296578063c87b56dd146102b2578063d4b0b116146102e2578063e985e9c514610312576100f5565b80636352211e146101fc57806370a082311461022c57806395d89b411461025c578063a22cb4651461027a576100f5565b8063095ea7b3116100d3578063095ea7b31461017857806323b872dd146101945780633e9e27aa146101b057806342842e0e146101e0576100f5565b806301ffc9a7146100fa57806306fdde031461012a578063081812fc14610148575b600080fd5b610114600480360381019061010f919061198e565b610342565b60405161012191906119d6565b60405180910390f35b6101326103a3565b60405161013f9190611a81565b60405180910390f35b610162600480360381019061015d9190611ad9565b610435565b60405161016f9190611b47565b60405180910390f35b610192600480360381019061018d9190611b8e565b610451565b005b6101ae60048036038101906101a99190611bce565b610467565b005b6101ca60048036038101906101c59190611d56565b610569565b6040516101d79190611dd4565b60405180910390f35b6101fa60048036038101906101f59190611bce565b6106a9565b005b61021660048036038101906102119190611ad9565b6106c9565b6040516102239190611b47565b60405180910390f35b61024660048036038101906102419190611def565b6106db565b6040516102539190611dd4565b60405180910390f35b610264610795565b6040516102719190611a81565b60405180910390f35b610294600480360381019061028f9190611e48565b610827565b005b6102b060048036038101906102ab9190611f29565b61083d565b005b6102cc60048036038101906102c79190611ad9565b61085a565b6040516102d99190611a81565b60405180910390f35b6102fc60048036038101906102f79190611fac565b61096d565b6040516103099190611dd4565b60405180910390f35b61032c60048036038101906103279190611ff5565b6109a6565b60405161033991906119d6565b60405180910390f35b6000634906490660e01b7bffffffffffffffffffffffffffffffffffffffffffffffffffffffff1916827bffffffffffffffffffffffffffffffffffffffffffffffffffffffff1916148061039c575061039b82610a3a565b5b9050919050565b6060600080546103b290612064565b80601f01602080910402602001604051908101604052809291908181526020018280546103de90612064565b801561042b5780601f106104005761010080835404028352916020019161042b565b820191906000526020600020905b81548152906001019060200180831161040e57829003601f168201915b5050505050905090565b600061044082610b1c565b5061044a82610ba4565b9050919050565b610463828261045e610be1565b610be9565b5050565b600073ffffffffffffffffffffffffffffffffffffffff168273ffffffffffffffffffffffffffffffffffffffff16036104d95760006040517f64a0ae920000000000000000000000000000000000000000000000000000000081526004016104d09190611b47565b60405180910390fd5b60006104ed83836104e8610be1565b610bfb565b90508373ffffffffffffffffffffffffffffffffffffffff168173ffffffffffffffffffffffffffffffffffffffff1614610563578382826040517f64283d7b00000000000000000000000000000000000000000000000000000000815260040161055a93929190612095565b60405180910390fd5b50505050565b6000806008600081548092919061057f906120fb565b919050559050600060405180608001604052804281526020018681526020013373ffffffffffffffffffffffffffffffffffffffff168152602001858152509050816009600088815260200190815260200160002060003373ffffffffffffffffffffffffffffffffffffffff1673ffffffffffffffffffffffffffffffffffffffff1681526020019081526020016000208190555080600a6000848152602001908152602001600020600082015181600001556020820151816001015560408201518160020160006101000a81548173ffffffffffffffffffffffffffffffffffffffff021916908373ffffffffffffffffffffffffffffffffffffffff160217905550606082015181600301908161069991906122ef565b5090505081925050509392505050565b6106c48383836040518060200160405280600081525061083d565b505050565b60006106d482610b1c565b9050919050565b60008073ffffffffffffffffffffffffffffffffffffffff168273ffffffffffffffffffffffffffffffffffffffff160361074e5760006040517f89c62b640000000000000000000000000000000000000000000000000000000081526004016107459190611b47565b60405180910390fd5b600360008373ffffffffffffffffffffffffffffffffffffffff1673ffffffffffffffffffffffffffffffffffffffff168152602001908152602001600020549050919050565b6060600180546107a490612064565b80601f01602080910402602001604051908101604052809291908181526020018280546107d090612064565b801561081d5780601f106107f25761010080835404028352916020019161081d565b820191906000526020600020905b81548152906001019060200180831161080057829003601f168201915b5050505050905090565b610839610832610be1565b8383610e15565b5050565b610848848484610467565b61085484848484610f84565b50505050565b606061086582610b1c565b50600060066000848152602001908152602001600020805461088690612064565b80601f01602080910402602001604051908101604052809291908181526020018280546108b290612064565b80156108ff5780601f106108d4576101008083540402835291602001916108ff565b820191906000526020600020905b8154815290600101906020018083116108e257829003601f168201915b50505050509050600061091061113b565b90506000815103610925578192505050610968565b60008251111561095a5780826040516020016109429291906123fd565b60405160208183030381529060405292505050610968565b61096384611152565b925050505b919050565b60008060076000815480929190610983906120fb565b91905055905061099333826111bb565b61099d81846112b4565b80915050919050565b6000600560008473ffffffffffffffffffffffffffffffffffffffff1673ffffffffffffffffffffffffffffffffffffffff16815260200190815260200160002060008373ffffffffffffffffffffffffffffffffffffffff1673ffffffffffffffffffffffffffffffffffffffff16815260200190815260200160002060009054906101000a900460ff16905092915050565b60007f80ac58cd000000000000000000000000000000000000000000000000000000007bffffffffffffffffffffffffffffffffffffffffffffffffffffffff1916827bffffffffffffffffffffffffffffffffffffffffffffffffffffffff19161480610b0557507f5b5e139f000000000000000000000000000000000000000000000000000000007bffffffffffffffffffffffffffffffffffffffffffffffffffffffff1916827bffffffffffffffffffffffffffffffffffffffffffffffffffffffff1916145b80610b155750610b1482611310565b5b9050919050565b600080610b288361137a565b9050600073ffffffffffffffffffffffffffffffffffffffff168173ffffffffffffffffffffffffffffffffffffffff1603610b9b57826040517f7e273289000000000000000000000000000000000000000000000000000000008152600401610b929190611dd4565b60405180910390fd5b80915050919050565b60006004600083815260200190815260200160002060009054906101000a900473ffffffffffffffffffffffffffffffffffffffff169050919050565b600033905090565b610bf683838360016113b7565b505050565b600080610c078461137a565b9050600073ffffffffffffffffffffffffffffffffffffffff168373ffffffffffffffffffffffffffffffffffffffff1614610c4957610c4881848661157c565b5b600073ffffffffffffffffffffffffffffffffffffffff168173ffffffffffffffffffffffffffffffffffffffff1614610cda57610c8b6000856000806113b7565b6001600360008373ffffffffffffffffffffffffffffffffffffffff1673ffffffffffffffffffffffffffffffffffffffff168152602001908152602001600020600082825403925050819055505b600073ffffffffffffffffffffffffffffffffffffffff168573ffffffffffffffffffffffffffffffffffffffff1614610d5d576001600360008773ffffffffffffffffffffffffffffffffffffffff1673ffffffffffffffffffffffffffffffffffffffff168152602001908152602001600020600082825401925050819055505b846002600086815260200190815260200160002060006101000a81548173ffffffffffffffffffffffffffffffffffffffff021916908373ffffffffffffffffffffffffffffffffffffffff160217905550838573ffffffffffffffffffffffffffffffffffffffff168273ffffffffffffffffffffffffffffffffffffffff167fddf252ad1be2c89b69c2b068fc378daa952ba7f163c4a11628f55a4df523b3ef60405160405180910390a4809150509392505050565b600073ffffffffffffffffffffffffffffffffffffffff168273ffffffffffffffffffffffffffffffffffffffff1603610e8657816040517f5b08ba18000000000000000000000000000000000000000000000000000000008152600401610e7d9190611b47565b60405180910390fd5b80600560008573ffffffffffffffffffffffffffffffffffffffff1673ffffffffffffffffffffffffffffffffffffffff16815260200190815260200160002060008473ffffffffffffffffffffffffffffffffffffffff1673ffffffffffffffffffffffffffffffffffffffff16815260200190815260200160002060006101000a81548160ff0219169083151502179055508173ffffffffffffffffffffffffffffffffffffffff168373ffffffffffffffffffffffffffffffffffffffff167f17307eab39ab6107e8899845ad3d59bd9653f200f220920489ca2b5937696c3183604051610f7791906119d6565b60405180910390a3505050565b60008373ffffffffffffffffffffffffffffffffffffffff163b1115611135578273ffffffffffffffffffffffffffffffffffffffff1663150b7a02610fc8610be1565b8685856040518563ffffffff1660e01b8152600401610fea9493929190612476565b6020604051808303816000875af192505050801561102657506040513d601f19601f8201168201806040525081019061102391906124d7565b60015b6110aa573d8060008114611056576040519150601f19603f3d011682016040523d82523d6000602084013e61105b565b606091505b5060008151036110a257836040517f64a0ae920000000000000000000000000000000000000000000000000000000081526004016110999190611b47565b60405180910390fd5b805181602001fd5b63150b7a0260e01b7bffffffffffffffffffffffffffffffffffffffffffffffffffffffff1916817bffffffffffffffffffffffffffffffffffffffffffffffffffffffff19161461113357836040517f64a0ae9200000000000000000000000000000000000000000000000000000000815260040161112a9190611b47565b60405180910390fd5b505b50505050565b606060405180602001604052806000815250905090565b606061115d82610b1c565b50600061116861113b565b9050600081511161118857604051806020016040528060008152506111b3565b8061119284611640565b6040516020016111a39291906123fd565b6040516020818303038152906040525b915050919050565b600073ffffffffffffffffffffffffffffffffffffffff168273ffffffffffffffffffffffffffffffffffffffff160361122d5760006040517f64a0ae920000000000000000000000000000000000000000000000000000000081526004016112249190611b47565b60405180910390fd5b600061123b83836000610bfb565b9050600073ffffffffffffffffffffffffffffffffffffffff168173ffffffffffffffffffffffffffffffffffffffff16146112af5760006040517f73c6ac6e0000000000000000000000000000000000000000000000000000000081526004016112a69190611b47565b60405180910390fd5b505050565b806006600084815260200190815260200160002090816112d491906122ef565b507ff8e1a15aba9398e019f0b49df1a4fde98ee17ae345cb5f6b5e2c27f5033e8ce7826040516113049190611dd4565b60405180910390a15050565b60007f01ffc9a7000000000000000000000000000000000000000000000000000000007bffffffffffffffffffffffffffffffffffffffffffffffffffffffff1916827bffffffffffffffffffffffffffffffffffffffffffffffffffffffff1916149050919050565b60006002600083815260200190815260200160002060009054906101000a900473ffffffffffffffffffffffffffffffffffffffff169050919050565b80806113f05750600073ffffffffffffffffffffffffffffffffffffffff168273ffffffffffffffffffffffffffffffffffffffff1614155b1561152457600061140084610b1c565b9050600073ffffffffffffffffffffffffffffffffffffffff168373ffffffffffffffffffffffffffffffffffffffff161415801561146b57508273ffffffffffffffffffffffffffffffffffffffff168173ffffffffffffffffffffffffffffffffffffffff1614155b801561147e575061147c81846109a6565b155b156114c057826040517fa9fbf51f0000000000000000000000000000000000000000000000000000000081526004016114b79190611b47565b60405180910390fd5b811561152257838573ffffffffffffffffffffffffffffffffffffffff168273ffffffffffffffffffffffffffffffffffffffff167f8c5be1e5ebec7d5bd14f71427d1e84f3dd0314c0f7b2291e5b200ac8c7c3b92560405160405180910390a45b505b836004600085815260200190815260200160002060006101000a81548173ffffffffffffffffffffffffffffffffffffffff021916908373ffffffffffffffffffffffffffffffffffffffff16021790555050505050565b61158783838361170e565b61163b57600073ffffffffffffffffffffffffffffffffffffffff168373ffffffffffffffffffffffffffffffffffffffff16036115fc57806040517f7e2732890000000000000000000000000000000000000000000000000000000081526004016115f39190611dd4565b60405180910390fd5b81816040517f177e802f000000000000000000000000000000000000000000000000000000008152600401611632929190612504565b60405180910390fd5b505050565b60606000600161164f846117cf565b01905060008167ffffffffffffffff81111561166e5761166d611c2b565b5b6040519080825280601f01601f1916602001820160405280156116a05781602001600182028036833780820191505090505b509050600082602001820190505b600115611703578080600190039150507f3031323334353637383961626364656600000000000000000000000000000000600a86061a8153600a85816116f7576116f661252d565b5b049450600085036116ae575b819350505050919050565b60008073ffffffffffffffffffffffffffffffffffffffff168373ffffffffffffffffffffffffffffffffffffffff16141580156117c657508273ffffffffffffffffffffffffffffffffffffffff168473ffffffffffffffffffffffffffffffffffffffff161480611787575061178684846109a6565b5b806117c557508273ffffffffffffffffffffffffffffffffffffffff166117ad83610ba4565b73ffffffffffffffffffffffffffffffffffffffff16145b5b90509392505050565b600080600090507a184f03e93ff9f4daa797ed6e38ed64bf6a1f010000000000000000831061182d577a184f03e93ff9f4daa797ed6e38ed64bf6a1f01000000000000000083816118235761182261252d565b5b0492506040810190505b6d04ee2d6d415b85acef8100000000831061186a576d04ee2d6d415b85acef810000000083816118605761185f61252d565b5b0492506020810190505b662386f26fc10000831061189957662386f26fc10000838161188f5761188e61252d565b5b0492506010810190505b6305f5e10083106118c2576305f5e10083816118b8576118b761252d565b5b0492506008810190505b61271083106118e75761271083816118dd576118dc61252d565b5b0492506004810190505b6064831061190a5760648381611900576118ff61252d565b5b0492506002810190505b600a8310611919576001810190505b80915050919050565b6000604051905090565b600080fd5b600080fd5b60007fffffffff0000000000000000000000000000000000000000000000000000000082169050919050565b61196b81611936565b811461197657600080fd5b50565b60008135905061198881611962565b92915050565b6000602082840312156119a4576119a361192c565b5b60006119b284828501611979565b91505092915050565b60008115159050919050565b6119d0816119bb565b82525050565b60006020820190506119eb60008301846119c7565b92915050565b600081519050919050565b600082825260208201905092915050565b60005b83811015611a2b578082015181840152602081019050611a10565b60008484015250505050565b6000601f19601f8301169050919050565b6000611a53826119f1565b611a5d81856119fc565b9350611a6d818560208601611a0d565b611a7681611a37565b840191505092915050565b60006020820190508181036000830152611a9b8184611a48565b905092915050565b6000819050919050565b611ab681611aa3565b8114611ac157600080fd5b50565b600081359050611ad381611aad565b92915050565b600060208284031215611aef57611aee61192c565b5b6000611afd84828501611ac4565b91505092915050565b600073ffffffffffffffffffffffffffffffffffffffff82169050919050565b6000611b3182611b06565b9050919050565b611b4181611b26565b82525050565b6000602082019050611b5c6000830184611b38565b92915050565b611b6b81611b26565b8114611b7657600080fd5b50565b600081359050611b8881611b62565b92915050565b60008060408385031215611ba557611ba461192c565b5b6000611bb385828601611b79565b9250506020611bc485828601611ac4565b9150509250929050565b600080600060608486031215611be757611be661192c565b5b6000611bf586828701611b79565b9350506020611c0686828701611b79565b9250506040611c1786828701611ac4565b9150509250925092565b600080fd5b600080fd5b7f4e487b7100000000000000000000000000000000000000000000000000000000600052604160045260246000fd5b611c6382611a37565b810181811067ffffffffffffffff82111715611c8257611c81611c2b565b5b80604052505050565b6000611c95611922565b9050611ca18282611c5a565b919050565b600067ffffffffffffffff821115611cc157611cc0611c2b565b5b611cca82611a37565b9050602081019050919050565b82818337600083830152505050565b6000611cf9611cf484611ca6565b611c8b565b905082815260208101848484011115611d1557611d14611c26565b5b611d20848285611cd7565b509392505050565b600082601f830112611d3d57611d3c611c21565b5b8135611d4d848260208601611ce6565b91505092915050565b600080600060608486031215611d6f57611d6e61192c565b5b6000611d7d86828701611ac4565b9350506020611d8e86828701611ac4565b925050604084013567ffffffffffffffff811115611daf57611dae611931565b5b611dbb86828701611d28565b9150509250925092565b611dce81611aa3565b82525050565b6000602082019050611de96000830184611dc5565b92915050565b600060208284031215611e0557611e0461192c565b5b6000611e1384828501611b79565b91505092915050565b611e25816119bb565b8114611e3057600080fd5b50565b600081359050611e4281611e1c565b92915050565b60008060408385031215611e5f57611e5e61192c565b5b6000611e6d85828601611b79565b9250506020611e7e85828601611e33565b9150509250929050565b600067ffffffffffffffff821115611ea357611ea2611c2b565b5b611eac82611a37565b9050602081019050919050565b6000611ecc611ec784611e88565b611c8b565b905082815260208101848484011115611ee857611ee7611c26565b5b611ef3848285611cd7565b509392505050565b600082601f830112611f1057611f0f611c21565b5b8135611f20848260208601611eb9565b91505092915050565b60008060008060808587031215611f4357611f4261192c565b5b6000611f5187828801611b79565b9450506020611f6287828801611b79565b9350506040611f7387828801611ac4565b925050606085013567ffffffffffffffff811115611f9457611f93611931565b5b611fa087828801611efb565b91505092959194509250565b600060208284031215611fc257611fc161192c565b5b600082013567ffffffffffffffff811115611fe057611fdf611931565b5b611fec84828501611d28565b91505092915050565b6000806040838503121561200c5761200b61192c565b5b600061201a85828601611b79565b925050602061202b85828601611b79565b9150509250929050565b7f4e487b7100000000000000000000000000000000000000000000000000000000600052602260045260246000fd5b6000600282049050600182168061207c57607f821691505b60208210810361208f5761208e612035565b5b50919050565b60006060820190506120aa6000830186611b38565b6120b76020830185611dc5565b6120c46040830184611b38565b949350505050565b7f4e487b7100000000000000000000000000000000000000000000000000000000600052601160045260246000fd5b600061210682611aa3565b91507fffffffffffffffffffffffffffffffffffffffffffffffffffffffffffffffff8203612138576121376120cc565b5b600182019050919050565b60008190508160005260206000209050919050565b60006020601f8301049050919050565b600082821b905092915050565b6000600883026121a57fffffffffffffffffffffffffffffffffffffffffffffffffffffffffffffffff82612168565b6121af8683612168565b95508019841693508086168417925050509392505050565b6000819050919050565b60006121ec6121e76121e284611aa3565b6121c7565b611aa3565b9050919050565b6000819050919050565b612206836121d1565b61221a612212826121f3565b848454612175565b825550505050565b600090565b61222f612222565b61223a8184846121fd565b505050565b5b8181101561225e57612253600082612227565b600181019050612240565b5050565b601f8211156122a35761227481612143565b61227d84612158565b8101602085101561228c578190505b6122a061229885612158565b83018261223f565b50505b505050565b600082821c905092915050565b60006122c6600019846008026122a8565b1980831691505092915050565b60006122df83836122b5565b9150826002028217905092915050565b6122f8826119f1565b67ffffffffffffffff81111561231157612310611c2b565b5b61231b8254612064565b612326828285612262565b600060209050601f8311600181146123595760008415612347578287015190505b61235185826122d3565b8655506123b9565b601f19841661236786612143565b60005b8281101561238f5784890151825560018201915060208501945060208101905061236a565b868310156123ac57848901516123a8601f8916826122b5565b8355505b6001600288020188555050505b505050505050565b600081905092915050565b60006123d7826119f1565b6123e181856123c1565b93506123f1818560208601611a0d565b80840191505092915050565b600061240982856123cc565b915061241582846123cc565b91508190509392505050565b600081519050919050565b600082825260208201905092915050565b600061244882612421565b612452818561242c565b9350612462818560208601611a0d565b61246b81611a37565b840191505092915050565b600060808201905061248b6000830187611b38565b6124986020830186611b38565b6124a56040830185611dc5565b81810360608301526124b7818461243d565b905095945050505050565b6000815190506124d181611962565b92915050565b6000602082840312156124ed576124ec61192c565b5b60006124fb848285016124c2565b91505092915050565b60006040820190506125196000830185611b38565b6125266020830184611dc5565b9392505050565b7f4e487b7100000000000000000000000000000000000000000000000000000000600052601260045260246000fdfea26469706673582212200ec4cc8eec925c501ecafa58a6d10c0087cf8b983af2a2c3f2f9f91816a80dfa64736f6c63430008180033",
  "linkReferences": {},
  "deployedLinkReferences": {}
}