{
  "_format": "hh-sol-artifact-1",
  "contractName": "Restaurant",
  "sourceName": "contracts/Restaurant.sol",
  "abi": [
    {
      "inputs": [
        {
          "internalType": "address",
          "name": "_entropy",
          "type": "address"
        },
        {
          "internalType": "address",
          "name": "_provider",
          "type": "address"
        }
      ],
      "stateMutability": "nonpayable",
      "type": "constructor"
    },
    {
      "inputs": [
        {
          "internalType": "address",
          "name": "sender",
          "type": "address"
        },
        {
          "internalType": "uint256",
          "name": "tokenId",
          "type": "uint256"
        },
        {
          "internalType": "address",
          "name": "owner",
          "type": "address"
        }
      ],
      "name": "ERC721IncorrectOwner",
      "type": "error"
    },
    {
      "inputs": [
        {
          "internalType": "address",
          "name": "operator",
          "type": "address"
        },
        {
          "internalType": "uint256",
          "name": "tokenId",
          "type": "uint256"
        }
      ],
      "name": "ERC721InsufficientApproval",
      "type": "error"
    },
    {
      "inputs": [
        {
          "internalType": "address",
          "name": "approver",
          "type": "address"
        }
      ],
      "name": "ERC721InvalidApprover",
      "type": "error"
    },
    {
      "inputs": [
        {
          "internalType": "address",
          "name": "operator",
          "type": "address"
        }
      ],
      "name": "ERC721InvalidOperator",
      "type": "error"
    },
    {
      "inputs": [
        {
          "internalType": "address",
          "name": "owner",
          "type": "address"
        }
      ],
      "name": "ERC721InvalidOwner",
      "type": "error"
    },
    {
      "inputs": [
        {
          "internalType": "address",
          "name": "receiver",
          "type": "address"
        }
      ],
      "name": "ERC721InvalidReceiver",
      "type": "error"
    },
    {
      "inputs": [
        {
          "internalType": "address",
          "name": "sender",
          "type": "address"
        }
      ],
      "name": "ERC721InvalidSender",
      "type": "error"
    },
    {
      "inputs": [
        {
          "internalType": "uint256",
          "name": "tokenId",
          "type": "uint256"
        }
      ],
      "name": "ERC721NonexistentToken",
      "type": "error"
    },
    {
      "anonymous": false,
      "inputs": [
        {
          "indexed": true,
          "internalType": "address",
          "name": "owner",
          "type": "address"
        },
        {
          "indexed": true,
          "internalType": "address",
          "name": "approved",
          "type": "address"
        },
        {
          "indexed": true,
          "internalType": "uint256",
          "name": "tokenId",
          "type": "uint256"
        }
      ],
      "name": "Approval",
      "type": "event"
    },
    {
      "anonymous": false,
      "inputs": [
        {
          "indexed": true,
          "internalType": "address",
          "name": "owner",
          "type": "address"
        },
        {
          "indexed": true,
          "internalType": "address",
          "name": "operator",
          "type": "address"
        },
        {
          "indexed": false,
          "internalType": "bool",
          "name": "approved",
          "type": "bool"
        }
      ],
      "name": "ApprovalForAll",
      "type": "event"
    },
    {
      "anonymous": false,
      "inputs": [
        {
          "indexed": true,
          "internalType": "address",
          "name": "from",
          "type": "address"
        },
        {
          "indexed": true,
          "internalType": "address",
          "name": "to",
          "type": "address"
        },
        {
          "indexed": true,
          "internalType": "uint256",
          "name": "tokenId",
          "type": "uint256"
        }
      ],
      "name": "Transfer",
      "type": "event"
    },
    {
      "inputs": [
        {
          "internalType": "uint64",
          "name": "sequence",
          "type": "uint64"
        },
        {
          "internalType": "address",
          "name": "provider",
          "type": "address"
        },
        {
          "internalType": "bytes32",
          "name": "randomNumber",
          "type": "bytes32"
        }
      ],
      "name": "_entropyCallback",
      "outputs": [],
      "stateMutability": "nonpayable",
      "type": "function"
    },
    {
      "inputs": [
        {
          "internalType": "uint256",
          "name": "restaurant_id",
          "type": "uint256"
        },
        {
          "internalType": "uint256",
          "name": "rating",
          "type": "uint256"
        },
        {
          "internalType": "string",
          "name": "message",
          "type": "string"
        }
      ],
      "name": "addReview",
      "outputs": [
        {
          "internalType": "uint256",
          "name": "",
          "type": "uint256"
        }
      ],
      "stateMutability": "nonpayable",
      "type": "function"
    },
    {
      "inputs": [
        {
          "internalType": "address",
          "name": "to",
          "type": "address"
        },
        {
          "internalType": "uint256",
          "name": "tokenId",
          "type": "uint256"
        }
      ],
      "name": "approve",
      "outputs": [],
      "stateMutability": "nonpayable",
      "type": "function"
    },
    {
      "inputs": [
        {
          "internalType": "address",
          "name": "owner",
          "type": "address"
        }
      ],
      "name": "balanceOf",
      "outputs": [
        {
          "internalType": "uint256",
          "name": "",
          "type": "uint256"
        }
      ],
      "stateMutability": "view",
      "type": "function"
    },
    {
      "inputs": [
        {
          "internalType": "string",
          "name": "name",
          "type": "string"
        },
        {
          "internalType": "string",
          "name": "place",
          "type": "string"
        }
      ],
      "name": "createRestaurant",
      "outputs": [
        {
          "internalType": "uint256",
          "name": "",
          "type": "uint256"
        }
      ],
      "stateMutability": "nonpayable",
      "type": "function"
    },
    {
      "inputs": [
        {
          "internalType": "uint256",
          "name": "tokenId",
          "type": "uint256"
        }
      ],
      "name": "getApproved",
      "outputs": [
        {
          "internalType": "address",
          "name": "",
          "type": "address"
        }
      ],
      "stateMutability": "view",
      "type": "function"
    },
    {
      "inputs": [
        {
          "internalType": "address",
          "name": "owner",
          "type": "address"
        },
        {
          "internalType": "address",
          "name": "operator",
          "type": "address"
        }
      ],
      "name": "isApprovedForAll",
      "outputs": [
        {
          "internalType": "bool",
          "name": "",
          "type": "bool"
        }
      ],
      "stateMutability": "view",
      "type": "function"
    },
    {
      "inputs": [],
      "name": "lastWinnerAddress",
      "outputs": [
        {
          "internalType": "address",
          "name": "",
          "type": "address"
        }
      ],
      "stateMutability": "view",
      "type": "function"
    },
    {
      "inputs": [],
      "name": "lastWinnerTimestamp",
      "outputs": [
        {
          "internalType": "uint256",
          "name": "",
          "type": "uint256"
        }
      ],
      "stateMutability": "view",
      "type": "function"
    },
    {
      "inputs": [],
      "name": "n_restaurants",
      "outputs": [
        {
          "internalType": "uint256",
          "name": "",
          "type": "uint256"
        }
      ],
      "stateMutability": "view",
      "type": "function"
    },
    {
      "inputs": [],
      "name": "name",
      "outputs": [
        {
          "internalType": "string",
          "name": "",
          "type": "string"
        }
      ],
      "stateMutability": "view",
      "type": "function"
    },
    {
      "inputs": [
        {
          "internalType": "uint256",
          "name": "tokenId",
          "type": "uint256"
        }
      ],
      "name": "ownerOf",
      "outputs": [
        {
          "internalType": "address",
          "name": "",
          "type": "address"
        }
      ],
      "stateMutability": "view",
      "type": "function"
    },
    {
      "inputs": [
        {
          "internalType": "uint64",
          "name": "",
          "type": "uint64"
        }
      ],
      "name": "pendingRandomRequests",
      "outputs": [
        {
          "internalType": "address",
          "name": "sender",
          "type": "address"
        },
        {
          "internalType": "uint256",
          "name": "timestamp",
          "type": "uint256"
        }
      ],
      "stateMutability": "view",
      "type": "function"
    },
    {
      "inputs": [
        {
          "internalType": "bytes32",
          "name": "userRandomNumber",
          "type": "bytes32"
        }
      ],
      "name": "run_contest",
      "outputs": [],
      "stateMutability": "payable",
      "type": "function"
    },
    {
      "inputs": [
        {
          "internalType": "address",
          "name": "from",
          "type": "address"
        },
        {
          "internalType": "address",
          "name": "to",
          "type": "address"
        },
        {
          "internalType": "uint256",
          "name": "tokenId",
          "type": "uint256"
        }
      ],
      "name": "safeTransferFrom",
      "outputs": [],
      "stateMutability": "nonpayable",
      "type": "function"
    },
    {
      "inputs": [
        {
          "internalType": "address",
          "name": "from",
          "type": "address"
        },
        {
          "internalType": "address",
          "name": "to",
          "type": "address"
        },
        {
          "internalType": "uint256",
          "name": "tokenId",
          "type": "uint256"
        },
        {
          "internalType": "bytes",
          "name": "data",
          "type": "bytes"
        }
      ],
      "name": "safeTransferFrom",
      "outputs": [],
      "stateMutability": "nonpayable",
      "type": "function"
    },
    {
      "inputs": [
        {
          "internalType": "address",
          "name": "operator",
          "type": "address"
        },
        {
          "internalType": "bool",
          "name": "approved",
          "type": "bool"
        }
      ],
      "name": "setApprovalForAll",
      "outputs": [],
      "stateMutability": "nonpayable",
      "type": "function"
    },
    {
      "inputs": [
        {
          "internalType": "bytes4",
          "name": "interfaceId",
          "type": "bytes4"
        }
      ],
      "name": "supportsInterface",
      "outputs": [
        {
          "internalType": "bool",
          "name": "",
          "type": "bool"
        }
      ],
      "stateMutability": "view",
      "type": "function"
    },
    {
      "inputs": [],
      "name": "symbol",
      "outputs": [
        {
          "internalType": "string",
          "name": "",
          "type": "string"
        }
      ],
      "stateMutability": "view",
      "type": "function"
    },
    {
      "inputs": [
        {
          "internalType": "uint256",
          "name": "tokenId",
          "type": "uint256"
        }
      ],
      "name": "tokenURI",
      "outputs": [
        {
          "internalType": "string",
          "name": "",
          "type": "string"
        }
      ],
      "stateMutability": "view",
      "type": "function"
    },
    {
      "inputs": [
        {
          "internalType": "address",
          "name": "from",
          "type": "address"
        },
        {
          "internalType": "address",
          "name": "to",
          "type": "address"
        },
        {
          "internalType": "uint256",
          "name": "tokenId",
          "type": "uint256"
        }
      ],
      "name": "transferFrom",
      "outputs": [],
      "stateMutability": "nonpayable",
      "type": "function"
    }
  ],
  "bytecode": "0x60806040523480156200001157600080fd5b5060405162003872380380620038728339818101604052810190620000379190620001bd565b6040518060400160405280600a81526020017f52657374617572616e74000000000000000000000000000000000000000000008152506040518060400160405280600381526020017f52535400000000000000000000000000000000000000000000000000000000008152508160009081620000b491906200047e565b508060019081620000c691906200047e565b50505081600660006101000a81548173ffffffffffffffffffffffffffffffffffffffff021916908373ffffffffffffffffffffffffffffffffffffffff16021790555080600760006101000a81548173ffffffffffffffffffffffffffffffffffffffff021916908373ffffffffffffffffffffffffffffffffffffffff160217905550505062000565565b600080fd5b600073ffffffffffffffffffffffffffffffffffffffff82169050919050565b6000620001858262000158565b9050919050565b620001978162000178565b8114620001a357600080fd5b50565b600081519050620001b7816200018c565b92915050565b60008060408385031215620001d757620001d662000153565b5b6000620001e785828601620001a6565b9250506020620001fa85828601620001a6565b9150509250929050565b600081519050919050565b7f4e487b7100000000000000000000000000000000000000000000000000000000600052604160045260246000fd5b7f4e487b7100000000000000000000000000000000000000000000000000000000600052602260045260246000fd5b600060028204905060018216806200028657607f821691505b6020821081036200029c576200029b6200023e565b5b50919050565b60008190508160005260206000209050919050565b60006020601f8301049050919050565b600082821b905092915050565b600060088302620003067fffffffffffffffffffffffffffffffffffffffffffffffffffffffffffffffff82620002c7565b620003128683620002c7565b95508019841693508086168417925050509392505050565b6000819050919050565b6000819050919050565b60006200035f6200035962000353846200032a565b62000334565b6200032a565b9050919050565b6000819050919050565b6200037b836200033e565b620003936200038a8262000366565b848454620002d4565b825550505050565b600090565b620003aa6200039b565b620003b781848462000370565b505050565b5b81811015620003df57620003d3600082620003a0565b600181019050620003bd565b5050565b601f8211156200042e57620003f881620002a2565b6200040384620002b7565b8101602085101562000413578190505b6200042b6200042285620002b7565b830182620003bc565b50505b505050565b600082821c905092915050565b6000620004536000198460080262000433565b1980831691505092915050565b60006200046e838362000440565b9150826002028217905092915050565b620004898262000204565b67ffffffffffffffff811115620004a557620004a46200020f565b5b620004b182546200026d565b620004be828285620003e3565b600060209050601f831160018114620004f65760008415620004e1578287015190505b620004ed858262000460565b8655506200055d565b601f1984166200050686620002a2565b60005b82811015620005305784890151825560018201915060208501945060208101905062000509565b868310156200055057848901516200054c601f89168262000440565b8355505b6001600288020188555050505b505050505050565b6132fd80620005756000396000f3fe60806040526004361061012a5760003560e01c806352a5f1f8116100ab57806395d89b411161006f57806395d89b411461041c578063a22cb46514610447578063b88d4fde14610470578063c87b56dd14610499578063df8aec26146104d6578063e985e9c5146105015761012a565b806352a5f1f8146103325780636352211e1461035b578063701fa00e1461039857806370a08231146103c357806371e93ea9146104005761012a565b806323b872dd116100f257806323b872dd146102285780633e9e27aa1461025157806342842e0e1461028e5780634806e9af146102b75780634d33930c146102f45761012a565b806301ffc9a71461012f57806306fdde031461016c578063081812fc14610197578063095ea7b3146101d45780631ec41163146101fd575b600080fd5b34801561013b57600080fd5b50610156600480360381019061015191906121d0565b61053e565b6040516101639190612218565b60405180910390f35b34801561017857600080fd5b50610181610620565b60405161018e91906122c3565b60405180910390f35b3480156101a357600080fd5b506101be60048036038101906101b9919061231b565b6106b2565b6040516101cb9190612389565b60405180910390f35b3480156101e057600080fd5b506101fb60048036038101906101f691906123d0565b6106ce565b005b34801561020957600080fd5b506102126106e4565b60405161021f9190612389565b60405180910390f35b34801561023457600080fd5b5061024f600480360381019061024a9190612410565b61070a565b005b34801561025d57600080fd5b5061027860048036038101906102739190612598565b61080c565b6040516102859190612616565b60405180910390f35b34801561029a57600080fd5b506102b560048036038101906102b09190612410565b610a5a565b005b3480156102c357600080fd5b506102de60048036038101906102d99190612631565b610a7a565b6040516102eb9190612616565b60405180910390f35b34801561030057600080fd5b5061031b600480360381019061031691906126e9565b610b1b565b604051610329929190612716565b60405180910390f35b34801561033e57600080fd5b5061035960048036038101906103549190612775565b610b5f565b005b34801561036757600080fd5b50610382600480360381019061037d919061231b565b610c59565b60405161038f9190612389565b60405180910390f35b3480156103a457600080fd5b506103ad610c6b565b6040516103ba9190612616565b60405180910390f35b3480156103cf57600080fd5b506103ea60048036038101906103e591906127c8565b610c71565b6040516103f79190612616565b60405180910390f35b61041a600480360381019061041591906127f5565b610d2b565b005b34801561042857600080fd5b50610431610fc6565b60405161043e91906122c3565b60405180910390f35b34801561045357600080fd5b5061046e6004803603810190610469919061284e565b611058565b005b34801561047c57600080fd5b506104976004803603810190610492919061292f565b61106e565b005b3480156104a557600080fd5b506104c060048036038101906104bb919061231b565b61108b565b6040516104cd91906122c3565b60405180910390f35b3480156104e257600080fd5b506104eb6110f4565b6040516104f89190612616565b60405180910390f35b34801561050d57600080fd5b50610528600480360381019061052391906129b2565b6110fa565b6040516105359190612218565b60405180910390f35b60007f80ac58cd000000000000000000000000000000000000000000000000000000007bffffffffffffffffffffffffffffffffffffffffffffffffffffffff1916827bffffffffffffffffffffffffffffffffffffffffffffffffffffffff1916148061060957507f5b5e139f000000000000000000000000000000000000000000000000000000007bffffffffffffffffffffffffffffffffffffffffffffffffffffffff1916827bffffffffffffffffffffffffffffffffffffffffffffffffffffffff1916145b8061061957506106188261118e565b5b9050919050565b60606000805461062f90612a21565b80601f016020809104026020016040519081016040528092919081815260200182805461065b90612a21565b80156106a85780601f1061067d576101008083540402835291602001916106a8565b820191906000526020600020905b81548152906001019060200180831161068b57829003601f168201915b5050505050905090565b60006106bd826111f8565b506106c782611280565b9050919050565b6106e082826106db6112bd565b6112c5565b5050565b600b60009054906101000a900473ffffffffffffffffffffffffffffffffffffffff1681565b600073ffffffffffffffffffffffffffffffffffffffff168273ffffffffffffffffffffffffffffffffffffffff160361077c5760006040517f64a0ae920000000000000000000000000000000000000000000000000000000081526004016107739190612389565b60405180910390fd5b6000610790838361078b6112bd565b6112d7565b90508373ffffffffffffffffffffffffffffffffffffffff168173ffffffffffffffffffffffffffffffffffffffff1614610806578382826040517f64283d7b0000000000000000000000000000000000000000000000000000000081526004016107fd93929190612a52565b60405180910390fd5b50505050565b6000601160003373ffffffffffffffffffffffffffffffffffffffff1673ffffffffffffffffffffffffffffffffffffffff16815260200190815260200160002060009054906101000a900460ff1661091b576001601160003373ffffffffffffffffffffffffffffffffffffffff1673ffffffffffffffffffffffffffffffffffffffff16815260200190815260200160002060006101000a81548160ff0219169083151502179055506010339080600181540180825580915050600190039060005260206000200160009091909190916101000a81548173ffffffffffffffffffffffffffffffffffffffff021916908373ffffffffffffffffffffffffffffffffffffffff1602179055505b60006009600081548092919061093090612ab8565b919050559050600060405180608001604052804281526020018681526020013373ffffffffffffffffffffffffffffffffffffffff16815260200185815250905081600e600088815260200190815260200160002060003373ffffffffffffffffffffffffffffffffffffffff1673ffffffffffffffffffffffffffffffffffffffff1681526020019081526020016000208190555080600f6000848152602001908152602001600020600082015181600001556020820151816001015560408201518160020160006101000a81548173ffffffffffffffffffffffffffffffffffffffff021916908373ffffffffffffffffffffffffffffffffffffffff1602179055506060820151816003019081610a4a9190612cac565b5090505081925050509392505050565b610a758383836040518060200160405280600081525061106e565b505050565b60008060086000815480929190610a9090612ab8565b919050559050604051806040016040528085815260200184815250600d6000600c5481526020019081526020016000206000820151816000019081610ad59190612cac565b506020820151816001019081610aeb9190612cac565b50905050600c6000815480929190610b0290612ab8565b9190505550610b1133826114f1565b8091505092915050565b60126020528060005260406000206000915090508060000160009054906101000a900473ffffffffffffffffffffffffffffffffffffffff16908060010154905082565b6000610b696115ea565b9050600073ffffffffffffffffffffffffffffffffffffffff168173ffffffffffffffffffffffffffffffffffffffff1603610bda576040517f08c379a0000000000000000000000000000000000000000000000000000000008152600401610bd190612dca565b60405180910390fd5b8073ffffffffffffffffffffffffffffffffffffffff163373ffffffffffffffffffffffffffffffffffffffff1614610c48576040517f08c379a0000000000000000000000000000000000000000000000000000000008152600401610c3f90612e5c565b60405180910390fd5b610c53848484611614565b50505050565b6000610c64826111f8565b9050919050565b600c5481565b60008073ffffffffffffffffffffffffffffffffffffffff168273ffffffffffffffffffffffffffffffffffffffff1603610ce45760006040517f89c62b64000000000000000000000000000000000000000000000000000000008152600401610cdb9190612389565b60405180910390fd5b600360008373ffffffffffffffffffffffffffffffffffffffff1673ffffffffffffffffffffffffffffffffffffffff168152602001908152602001600020549050919050565b6000600660009054906101000a900473ffffffffffffffffffffffffffffffffffffffff1673ffffffffffffffffffffffffffffffffffffffff1663b88c9148600760009054906101000a900473ffffffffffffffffffffffffffffffffffffffff166040518263ffffffff1660e01b8152600401610daa9190612389565b602060405180830381865afa158015610dc7573d6000803e3d6000fd5b505050506040513d601f19601f82011682018060405250810190610deb9190612ec4565b9050806fffffffffffffffffffffffffffffffff16341015610e42576040517f08c379a0000000000000000000000000000000000000000000000000000000008152600401610e3990612f3d565b60405180910390fd5b6000600660009054906101000a900473ffffffffffffffffffffffffffffffffffffffff1673ffffffffffffffffffffffffffffffffffffffff166319cb825f836fffffffffffffffffffffffffffffffff16600760009054906101000a900473ffffffffffffffffffffffffffffffffffffffff16866040518463ffffffff1660e01b8152600401610ed6929190612f6c565b60206040518083038185885af1158015610ef4573d6000803e3d6000fd5b50505050506040513d601f19601f82011682018060405250810190610f199190612faa565b905060405180604001604052803373ffffffffffffffffffffffffffffffffffffffff16815260200142815250601260008367ffffffffffffffff1667ffffffffffffffff16815260200190815260200160002060008201518160000160006101000a81548173ffffffffffffffffffffffffffffffffffffffff021916908373ffffffffffffffffffffffffffffffffffffffff16021790555060208201518160010155905050505050565b606060018054610fd590612a21565b80601f016020809104026020016040519081016040528092919081815260200182805461100190612a21565b801561104e5780601f106110235761010080835404028352916020019161104e565b820191906000526020600020905b81548152906001019060200180831161103157829003601f168201915b5050505050905090565b61106a6110636112bd565b838361187f565b5050565b61107984848461070a565b611085848484846119ee565b50505050565b6060611096826111f8565b5060006110a1611ba5565b905060008151116110c157604051806020016040528060008152506110ec565b806110cb84611bbc565b6040516020016110dc929190613013565b6040516020818303038152906040525b915050919050565b600a5481565b6000600560008473ffffffffffffffffffffffffffffffffffffffff1673ffffffffffffffffffffffffffffffffffffffff16815260200190815260200160002060008373ffffffffffffffffffffffffffffffffffffffff1673ffffffffffffffffffffffffffffffffffffffff16815260200190815260200160002060009054906101000a900460ff16905092915050565b60007f01ffc9a7000000000000000000000000000000000000000000000000000000007bffffffffffffffffffffffffffffffffffffffffffffffffffffffff1916827bffffffffffffffffffffffffffffffffffffffffffffffffffffffff1916149050919050565b60008061120483611c8a565b9050600073ffffffffffffffffffffffffffffffffffffffff168173ffffffffffffffffffffffffffffffffffffffff160361127757826040517f7e27328900000000000000000000000000000000000000000000000000000000815260040161126e9190612616565b60405180910390fd5b80915050919050565b60006004600083815260200190815260200160002060009054906101000a900473ffffffffffffffffffffffffffffffffffffffff169050919050565b600033905090565b6112d28383836001611cc7565b505050565b6000806112e384611c8a565b9050600073ffffffffffffffffffffffffffffffffffffffff168373ffffffffffffffffffffffffffffffffffffffff161461132557611324818486611e8c565b5b600073ffffffffffffffffffffffffffffffffffffffff168173ffffffffffffffffffffffffffffffffffffffff16146113b657611367600085600080611cc7565b6001600360008373ffffffffffffffffffffffffffffffffffffffff1673ffffffffffffffffffffffffffffffffffffffff168152602001908152602001600020600082825403925050819055505b600073ffffffffffffffffffffffffffffffffffffffff168573ffffffffffffffffffffffffffffffffffffffff1614611439576001600360008773ffffffffffffffffffffffffffffffffffffffff1673ffffffffffffffffffffffffffffffffffffffff168152602001908152602001600020600082825401925050819055505b846002600086815260200190815260200160002060006101000a81548173ffffffffffffffffffffffffffffffffffffffff021916908373ffffffffffffffffffffffffffffffffffffffff160217905550838573ffffffffffffffffffffffffffffffffffffffff168273ffffffffffffffffffffffffffffffffffffffff167fddf252ad1be2c89b69c2b068fc378daa952ba7f163c4a11628f55a4df523b3ef60405160405180910390a4809150509392505050565b600073ffffffffffffffffffffffffffffffffffffffff168273ffffffffffffffffffffffffffffffffffffffff16036115635760006040517f64a0ae9200000000000000000000000000000000000000000000000000000000815260040161155a9190612389565b60405180910390fd5b6000611571838360006112d7565b9050600073ffffffffffffffffffffffffffffffffffffffff168173ffffffffffffffffffffffffffffffffffffffff16146115e55760006040517f73c6ac6e0000000000000000000000000000000000000000000000000000000081526004016115dc9190612389565b60405180910390fd5b505050565b6000600660009054906101000a900473ffffffffffffffffffffffffffffffffffffffff16905090565b6000601260008567ffffffffffffffff1667ffffffffffffffff1681526020019081526020016000206040518060400160405290816000820160009054906101000a900473ffffffffffffffffffffffffffffffffffffffff1673ffffffffffffffffffffffffffffffffffffffff1673ffffffffffffffffffffffffffffffffffffffff1681526020016001820154815250509050600073ffffffffffffffffffffffffffffffffffffffff16816000015173ffffffffffffffffffffffffffffffffffffffff160361171d576040517f08c379a000000000000000000000000000000000000000000000000000000000815260040161171490613083565b60405180910390fd5b60006010805490508360001c61173391906130d2565b905060006010828154811061174b5761174a613103565b5b9060005260206000200160009054906101000a900473ffffffffffffffffffffffffffffffffffffffff1690506000808273ffffffffffffffffffffffffffffffffffffffff1666038d7ea4c680006040516117a690613163565b60006040518083038185875af1925050503d80600081146117e3576040519150601f19603f3d011682016040523d82523d6000602084013e6117e8565b606091505b509150915042600a8190555082600b60006101000a81548173ffffffffffffffffffffffffffffffffffffffff021916908373ffffffffffffffffffffffffffffffffffffffff16021790555081611875576040517f08c379a000000000000000000000000000000000000000000000000000000000815260040161186c906131c4565b60405180910390fd5b5050505050505050565b600073ffffffffffffffffffffffffffffffffffffffff168273ffffffffffffffffffffffffffffffffffffffff16036118f057816040517f5b08ba180000000000000000000000000000000000000000000000000000000081526004016118e79190612389565b60405180910390fd5b80600560008573ffffffffffffffffffffffffffffffffffffffff1673ffffffffffffffffffffffffffffffffffffffff16815260200190815260200160002060008473ffffffffffffffffffffffffffffffffffffffff1673ffffffffffffffffffffffffffffffffffffffff16815260200190815260200160002060006101000a81548160ff0219169083151502179055508173ffffffffffffffffffffffffffffffffffffffff168373ffffffffffffffffffffffffffffffffffffffff167f17307eab39ab6107e8899845ad3d59bd9653f200f220920489ca2b5937696c31836040516119e19190612218565b60405180910390a3505050565b60008373ffffffffffffffffffffffffffffffffffffffff163b1115611b9f578273ffffffffffffffffffffffffffffffffffffffff1663150b7a02611a326112bd565b8685856040518563ffffffff1660e01b8152600401611a549493929190613239565b6020604051808303816000875af1925050508015611a9057506040513d601f19601f82011682018060405250810190611a8d919061329a565b60015b611b14573d8060008114611ac0576040519150601f19603f3d011682016040523d82523d6000602084013e611ac5565b606091505b506000815103611b0c57836040517f64a0ae92000000000000000000000000000000000000000000000000000000008152600401611b039190612389565b60405180910390fd5b805181602001fd5b63150b7a0260e01b7bffffffffffffffffffffffffffffffffffffffffffffffffffffffff1916817bffffffffffffffffffffffffffffffffffffffffffffffffffffffff191614611b9d57836040517f64a0ae92000000000000000000000000000000000000000000000000000000008152600401611b949190612389565b60405180910390fd5b505b50505050565b606060405180602001604052806000815250905090565b606060006001611bcb84611f50565b01905060008167ffffffffffffffff811115611bea57611be961246d565b5b6040519080825280601f01601f191660200182016040528015611c1c5781602001600182028036833780820191505090505b509050600082602001820190505b600115611c7f578080600190039150507f3031323334353637383961626364656600000000000000000000000000000000600a86061a8153600a8581611c7357611c726130a3565b5b04945060008503611c2a575b819350505050919050565b60006002600083815260200190815260200160002060009054906101000a900473ffffffffffffffffffffffffffffffffffffffff169050919050565b8080611d005750600073ffffffffffffffffffffffffffffffffffffffff168273ffffffffffffffffffffffffffffffffffffffff1614155b15611e34576000611d10846111f8565b9050600073ffffffffffffffffffffffffffffffffffffffff168373ffffffffffffffffffffffffffffffffffffffff1614158015611d7b57508273ffffffffffffffffffffffffffffffffffffffff168173ffffffffffffffffffffffffffffffffffffffff1614155b8015611d8e5750611d8c81846110fa565b155b15611dd057826040517fa9fbf51f000000000000000000000000000000000000000000000000000000008152600401611dc79190612389565b60405180910390fd5b8115611e3257838573ffffffffffffffffffffffffffffffffffffffff168273ffffffffffffffffffffffffffffffffffffffff167f8c5be1e5ebec7d5bd14f71427d1e84f3dd0314c0f7b2291e5b200ac8c7c3b92560405160405180910390a45b505b836004600085815260200190815260200160002060006101000a81548173ffffffffffffffffffffffffffffffffffffffff021916908373ffffffffffffffffffffffffffffffffffffffff16021790555050505050565b611e978383836120a3565b611f4b57600073ffffffffffffffffffffffffffffffffffffffff168373ffffffffffffffffffffffffffffffffffffffff1603611f0c57806040517f7e273289000000000000000000000000000000000000000000000000000000008152600401611f039190612616565b60405180910390fd5b81816040517f177e802f000000000000000000000000000000000000000000000000000000008152600401611f42929190612716565b60405180910390fd5b505050565b600080600090507a184f03e93ff9f4daa797ed6e38ed64bf6a1f0100000000000000008310611fae577a184f03e93ff9f4daa797ed6e38ed64bf6a1f0100000000000000008381611fa457611fa36130a3565b5b0492506040810190505b6d04ee2d6d415b85acef81000000008310611feb576d04ee2d6d415b85acef81000000008381611fe157611fe06130a3565b5b0492506020810190505b662386f26fc10000831061201a57662386f26fc1000083816120105761200f6130a3565b5b0492506010810190505b6305f5e1008310612043576305f5e1008381612039576120386130a3565b5b0492506008810190505b612710831061206857612710838161205e5761205d6130a3565b5b0492506004810190505b6064831061208b5760648381612081576120806130a3565b5b0492506002810190505b600a831061209a576001810190505b80915050919050565b60008073ffffffffffffffffffffffffffffffffffffffff168373ffffffffffffffffffffffffffffffffffffffff161415801561215b57508273ffffffffffffffffffffffffffffffffffffffff168473ffffffffffffffffffffffffffffffffffffffff16148061211c575061211b84846110fa565b5b8061215a57508273ffffffffffffffffffffffffffffffffffffffff1661214283611280565b73ffffffffffffffffffffffffffffffffffffffff16145b5b90509392505050565b6000604051905090565b600080fd5b600080fd5b60007fffffffff0000000000000000000000000000000000000000000000000000000082169050919050565b6121ad81612178565b81146121b857600080fd5b50565b6000813590506121ca816121a4565b92915050565b6000602082840312156121e6576121e561216e565b5b60006121f4848285016121bb565b91505092915050565b60008115159050919050565b612212816121fd565b82525050565b600060208201905061222d6000830184612209565b92915050565b600081519050919050565b600082825260208201905092915050565b60005b8381101561226d578082015181840152602081019050612252565b60008484015250505050565b6000601f19601f8301169050919050565b600061229582612233565b61229f818561223e565b93506122af81856020860161224f565b6122b881612279565b840191505092915050565b600060208201905081810360008301526122dd818461228a565b905092915050565b6000819050919050565b6122f8816122e5565b811461230357600080fd5b50565b600081359050612315816122ef565b92915050565b6000602082840312156123315761233061216e565b5b600061233f84828501612306565b91505092915050565b600073ffffffffffffffffffffffffffffffffffffffff82169050919050565b600061237382612348565b9050919050565b61238381612368565b82525050565b600060208201905061239e600083018461237a565b92915050565b6123ad81612368565b81146123b857600080fd5b50565b6000813590506123ca816123a4565b92915050565b600080604083850312156123e7576123e661216e565b5b60006123f5858286016123bb565b925050602061240685828601612306565b9150509250929050565b6000806000606084860312156124295761242861216e565b5b6000612437868287016123bb565b9350506020612448868287016123bb565b925050604061245986828701612306565b9150509250925092565b600080fd5b600080fd5b7f4e487b7100000000000000000000000000000000000000000000000000000000600052604160045260246000fd5b6124a582612279565b810181811067ffffffffffffffff821117156124c4576124c361246d565b5b80604052505050565b60006124d7612164565b90506124e3828261249c565b919050565b600067ffffffffffffffff8211156125035761250261246d565b5b61250c82612279565b9050602081019050919050565b82818337600083830152505050565b600061253b612536846124e8565b6124cd565b90508281526020810184848401111561255757612556612468565b5b612562848285612519565b509392505050565b600082601f83011261257f5761257e612463565b5b813561258f848260208601612528565b91505092915050565b6000806000606084860312156125b1576125b061216e565b5b60006125bf86828701612306565b93505060206125d086828701612306565b925050604084013567ffffffffffffffff8111156125f1576125f0612173565b5b6125fd8682870161256a565b9150509250925092565b612610816122e5565b82525050565b600060208201905061262b6000830184612607565b92915050565b600080604083850312156126485761264761216e565b5b600083013567ffffffffffffffff81111561266657612665612173565b5b6126728582860161256a565b925050602083013567ffffffffffffffff81111561269357612692612173565b5b61269f8582860161256a565b9150509250929050565b600067ffffffffffffffff82169050919050565b6126c6816126a9565b81146126d157600080fd5b50565b6000813590506126e3816126bd565b92915050565b6000602082840312156126ff576126fe61216e565b5b600061270d848285016126d4565b91505092915050565b600060408201905061272b600083018561237a565b6127386020830184612607565b9392505050565b6000819050919050565b6127528161273f565b811461275d57600080fd5b50565b60008135905061276f81612749565b92915050565b60008060006060848603121561278e5761278d61216e565b5b600061279c868287016126d4565b93505060206127ad868287016123bb565b92505060406127be86828701612760565b9150509250925092565b6000602082840312156127de576127dd61216e565b5b60006127ec848285016123bb565b91505092915050565b60006020828403121561280b5761280a61216e565b5b600061281984828501612760565b91505092915050565b61282b816121fd565b811461283657600080fd5b50565b60008135905061284881612822565b92915050565b600080604083850312156128655761286461216e565b5b6000612873858286016123bb565b925050602061288485828601612839565b9150509250929050565b600067ffffffffffffffff8211156128a9576128a861246d565b5b6128b282612279565b9050602081019050919050565b60006128d26128cd8461288e565b6124cd565b9050828152602081018484840111156128ee576128ed612468565b5b6128f9848285612519565b509392505050565b600082601f83011261291657612915612463565b5b81356129268482602086016128bf565b91505092915050565b600080600080608085870312156129495761294861216e565b5b6000612957878288016123bb565b9450506020612968878288016123bb565b935050604061297987828801612306565b925050606085013567ffffffffffffffff81111561299a57612999612173565b5b6129a687828801612901565b91505092959194509250565b600080604083850312156129c9576129c861216e565b5b60006129d7858286016123bb565b92505060206129e8858286016123bb565b9150509250929050565b7f4e487b7100000000000000000000000000000000000000000000000000000000600052602260045260246000fd5b60006002820490506001821680612a3957607f821691505b602082108103612a4c57612a4b6129f2565b5b50919050565b6000606082019050612a67600083018661237a565b612a746020830185612607565b612a81604083018461237a565b949350505050565b7f4e487b7100000000000000000000000000000000000000000000000000000000600052601160045260246000fd5b6000612ac3826122e5565b91507fffffffffffffffffffffffffffffffffffffffffffffffffffffffffffffffff8203612af557612af4612a89565b5b600182019050919050565b60008190508160005260206000209050919050565b60006020601f8301049050919050565b600082821b905092915050565b600060088302612b627fffffffffffffffffffffffffffffffffffffffffffffffffffffffffffffffff82612b25565b612b6c8683612b25565b95508019841693508086168417925050509392505050565b6000819050919050565b6000612ba9612ba4612b9f846122e5565b612b84565b6122e5565b9050919050565b6000819050919050565b612bc383612b8e565b612bd7612bcf82612bb0565b848454612b32565b825550505050565b600090565b612bec612bdf565b612bf7818484612bba565b505050565b5b81811015612c1b57612c10600082612be4565b600181019050612bfd565b5050565b601f821115612c6057612c3181612b00565b612c3a84612b15565b81016020851015612c49578190505b612c5d612c5585612b15565b830182612bfc565b50505b505050565b600082821c905092915050565b6000612c8360001984600802612c65565b1980831691505092915050565b6000612c9c8383612c72565b9150826002028217905092915050565b612cb582612233565b67ffffffffffffffff811115612cce57612ccd61246d565b5b612cd88254612a21565b612ce3828285612c1f565b600060209050601f831160018114612d165760008415612d04578287015190505b612d0e8582612c90565b865550612d76565b601f198416612d2486612b00565b60005b82811015612d4c57848901518255600182019150602085019450602081019050612d27565b86831015612d695784890151612d65601f891682612c72565b8355505b6001600288020188555050505b505050505050565b7f456e74726f70792061646472657373206e6f7420736574000000000000000000600082015250565b6000612db460178361223e565b9150612dbf82612d7e565b602082019050919050565b60006020820190508181036000830152612de381612da7565b9050919050565b7f4f6e6c7920456e74726f70792063616e2063616c6c20746869732066756e637460008201527f696f6e0000000000000000000000000000000000000000000000000000000000602082015250565b6000612e4660238361223e565b9150612e5182612dea565b604082019050919050565b60006020820190508181036000830152612e7581612e39565b9050919050565b60006fffffffffffffffffffffffffffffffff82169050919050565b612ea181612e7c565b8114612eac57600080fd5b50565b600081519050612ebe81612e98565b92915050565b600060208284031215612eda57612ed961216e565b5b6000612ee884828501612eaf565b91505092915050565b7f4e6f7420656e6f75676820666565730000000000000000000000000000000000600082015250565b6000612f27600f8361223e565b9150612f3282612ef1565b602082019050919050565b60006020820190508181036000830152612f5681612f1a565b9050919050565b612f668161273f565b82525050565b6000604082019050612f81600083018561237a565b612f8e6020830184612f5d565b9392505050565b600081519050612fa4816126bd565b92915050565b600060208284031215612fc057612fbf61216e565b5b6000612fce84828501612f95565b91505092915050565b600081905092915050565b6000612fed82612233565b612ff78185612fd7565b935061300781856020860161224f565b80840191505092915050565b600061301f8285612fe2565b915061302b8284612fe2565b91508190509392505050565b7f52657175657374206e6f7420666f756e64000000000000000000000000000000600082015250565b600061306d60118361223e565b915061307882613037565b602082019050919050565b6000602082019050818103600083015261309c81613060565b9050919050565b7f4e487b7100000000000000000000000000000000000000000000000000000000600052601260045260246000fd5b60006130dd826122e5565b91506130e8836122e5565b9250826130f8576130f76130a3565b5b828206905092915050565b7f4e487b7100000000000000000000000000000000000000000000000000000000600052603260045260246000fd5b600081905092915050565b50565b600061314d600083613132565b91506131588261313d565b600082019050919050565b600061316e82613140565b9150819050919050565b7f4661696c656420746f2073656e64204574686572000000000000000000000000600082015250565b60006131ae60148361223e565b91506131b982613178565b602082019050919050565b600060208201905081810360008301526131dd816131a1565b9050919050565b600081519050919050565b600082825260208201905092915050565b600061320b826131e4565b61321581856131ef565b935061322581856020860161224f565b61322e81612279565b840191505092915050565b600060808201905061324e600083018761237a565b61325b602083018661237a565b6132686040830185612607565b818103606083015261327a8184613200565b905095945050505050565b600081519050613294816121a4565b92915050565b6000602082840312156132b0576132af61216e565b5b60006132be84828501613285565b9150509291505056fea26469706673582212209a133dd362e4d1e8a906b68eae6a641660c710533c5de8a9851410fc0df6332264736f6c63430008180033",
  "linkReferences": {},
  "deployedLinkReferences": {}
}