{
    "_format": "hh-sol-artifact-1",
    "contractName": "RestaurantRating",
    "sourceName": "contracts/RestaurantRating.sol",
    "abi": [
        {
            "inputs": [
                {
                    "internalType": "uint256",
                    "name": "_restaurantId",
                    "type": "uint256"
                }
            ],
            "stateMutability": "nonpayable",
            "type": "constructor"
        },
        {
            "inputs": [],
            "name": "getPreviousRatingRound",
            "outputs": [
                {
                    "internalType": "uint32",
                    "name": "",
                    "type": "uint32"
                }
            ],
            "stateMutability": "view",
            "type": "function"
        },
        {
            "inputs": [],
            "name": "publicRateRestaurant",
            "outputs": [
                {
                    "internalType": "uint32",
                    "name": "",
                    "type": "uint32"
                }
            ],
            "stateMutability": "view",
            "type": "function"
        },
        {
            "inputs": [
                {
                    "components": [
                        {
                            "internalType": "bytes",
                            "name": "data",
                            "type": "bytes"
                        }
                    ],
                    "internalType": "struct inEuint32",
                    "name": "encryptedRate",
                    "type": "tuple"
                }
            ],
            "name": "rate",
            "outputs": [],
            "stateMutability": "nonpayable",
            "type": "function"
        },
        {
            "inputs": [],
            "name": "restaurantId",
            "outputs": [
                {
                    "internalType": "uint256",
                    "name": "",
                    "type": "uint256"
                }
            ],
            "stateMutability": "view",
            "type": "function"
        }
    ],
    "bytecode": "0x60a0604052600a60809081525034801561001857600080fd5b506040516111fa3803806111fa833981810160405281019061003a91906101fc565b806000819055506000600260046101000a81548163ffffffff021916908363ffffffff160217905550610073600061007f60201b60201c565b60018190555050610474565b600061009282600261009960201b60201c565b9050919050565b60006060608073ffffffffffffffffffffffffffffffffffffffff166319e1c5c46100c98661014760201b60201c565b856040518363ffffffff1660e01b81526004016100e79291906102d5565b600060405180830381865afa158015610104573d6000803e3d6000fd5b505050506040513d6000823e3d601f19601f8201168201806040525081019061012d919061042b565b905061013e816101a460201b60201c565b91505092915050565b6060602067ffffffffffffffff8111156101645761016361030f565b5b6040519080825280601f01601f1916602001820160405280156101965781602001600182028036833780820191505090505b509050816020820152919050565b600060208201519050919050565b6000604051905090565b600080fd5b600080fd5b6000819050919050565b6101d9816101c6565b81146101e457600080fd5b50565b6000815190506101f6816101d0565b92915050565b600060208284031215610212576102116101bc565b5b6000610220848285016101e7565b91505092915050565b600081519050919050565b600082825260208201905092915050565b60005b83811015610263578082015181840152602081019050610248565b60008484015250505050565b6000601f19601f8301169050919050565b600061028b82610229565b6102958185610234565b93506102a5818560208601610245565b6102ae8161026f565b840191505092915050565b600060ff82169050919050565b6102cf816102b9565b82525050565b600060408201905081810360008301526102ef8185610280565b90506102fe60208301846102c6565b9392505050565b600080fd5b600080fd5b7f4e487b7100000000000000000000000000000000000000000000000000000000600052604160045260246000fd5b6103478261026f565b810181811067ffffffffffffffff821117156103665761036561030f565b5b80604052505050565b60006103796101b2565b9050610385828261033e565b919050565b600067ffffffffffffffff8211156103a5576103a461030f565b5b6103ae8261026f565b9050602081019050919050565b60006103ce6103c98461038a565b61036f565b9050828152602081018484840111156103ea576103e961030a565b5b6103f5848285610245565b509392505050565b600082601f83011261041257610411610305565b5b81516104228482602086016103bb565b91505092915050565b600060208284031215610441576104406101bc565b5b600082015167ffffffffffffffff81111561045f5761045e6101c1565b5b61046b848285016103fd565b91505092915050565b608051610d6b61048f60003960006102350152610d6b6000f3fe608060405234801561001057600080fd5b506004361061004c5760003560e01c80631826dae4146100515780632f8fa8451461006f5780633b93e2e31461008d578063e4510f56146100a9575b600080fd5b6100596100c7565b60405161006691906106ef565b60405180910390f35b6100776100dd565b6040516100849190610723565b60405180910390f35b6100a760048036038101906100a29190610776565b6100e3565b005b6100b16102c9565b6040516100be91906106ef565b60405180910390f35b600260009054906101000a900463ffffffff1681565b60005481565b600360003373ffffffffffffffffffffffffffffffffffffffff1673ffffffffffffffffffffffffffffffffffffffff16815260200190815260200160002060009054906101000a900460ff1615610170576040517f08c379a00000000000000000000000000000000000000000000000000000000081526004016101679061081c565b60405180910390fd5b6001600360003373ffffffffffffffffffffffffffffffffffffffff1673ffffffffffffffffffffffffffffffffffffffff16815260200190815260200160002060006101000a81548160ff0219169083151502179055506002600481819054906101000a900463ffffffff16809291906101ea9061086b565b91906101000a81548163ffffffff021916908363ffffffff16021790555050600061021d8261021890610a3f565b6102e3565b905061022b600154826102f9565b60018190555060007f0000000000000000000000000000000000000000000000000000000000000000600260049054906101000a900463ffffffff1663ffffffff166102779190610a81565b036102c557600260049054906101000a900463ffffffff1661029a60015461030d565b6102a49190610ab2565b600260006101000a81548163ffffffff021916908363ffffffff1602179055505b5050565b6000600260009054906101000a900463ffffffff16905090565b60006102f282600001516103d0565b9050919050565b600061030583836103e4565b905092915050565b60006103188261045c565b610329576103266000610469565b91505b600082905060006103398261047d565b90506000608073ffffffffffffffffffffffffffffffffffffffff166373cc01546002846040518363ffffffff1660e01b815260040161037a929190610b7e565b602060405180830381865afa158015610397573d6000803e3d6000fd5b505050506040513d601f19601f820116820180604052508101906103bb9190610bda565b90506103c6816104da565b9350505050919050565b60006103dd8260026104e4565b9050919050565b60006103ef8361045c565b610400576103fd6000610469565b92505b6104098261045c565b61041a576104176000610469565b91505b60008390506000839050600061044e60028484608073ffffffffffffffffffffffffffffffffffffffff16622df61961057e565b905080935050505092915050565b6000808214159050919050565b6000610476826002610612565b9050919050565b6060602067ffffffffffffffff81111561049a576104996108ad565b5b6040519080825280601f01601f1916602001820160405280156104cc5781602001600182028036833780820191505090505b509050816020820152919050565b6000819050919050565b60006060608073ffffffffffffffffffffffffffffffffffffffff16635fa55ca784866040518363ffffffff1660e01b8152600401610524929190610b7e565b600060405180830381865afa158015610541573d6000803e3d6000fd5b505050506040513d6000823e3d601f19601f8201168201806040525081019061056a9190610c77565b9050610575816106b4565b91505092915050565b6000606083838861058e8961047d565b6105978961047d565b6040518463ffffffff1660e01b81526004016105b593929190610cc0565b600060405180830381865afa1580156105d2573d6000803e3d6000fd5b505050506040513d6000823e3d601f19601f820116820180604052508101906105fb9190610c77565b9050610606816106c2565b91505095945050505050565b60006060608073ffffffffffffffffffffffffffffffffffffffff166319e1c5c461063c8661047d565b856040518363ffffffff1660e01b815260040161065a929190610d05565b600060405180830381865afa158015610677573d6000803e3d6000fd5b505050506040513d6000823e3d601f19601f820116820180604052508101906106a09190610c77565b90506106ab816106b4565b91505092915050565b600060208201519050919050565b600060208201519050919050565b600063ffffffff82169050919050565b6106e9816106d0565b82525050565b600060208201905061070460008301846106e0565b92915050565b6000819050919050565b61071d8161070a565b82525050565b60006020820190506107386000830184610714565b92915050565b6000604051905090565b600080fd5b600080fd5b600080fd5b60006020828403121561076d5761076c610752565b5b81905092915050565b60006020828403121561078c5761078b610748565b5b600082013567ffffffffffffffff8111156107aa576107a961074d565b5b6107b684828501610757565b91505092915050565b600082825260208201905092915050565b7f555345525f4841535f414c52454144595f564f54454400000000000000000000600082015250565b60006108066016836107bf565b9150610811826107d0565b602082019050919050565b60006020820190508181036000830152610835816107f9565b9050919050565b7f4e487b7100000000000000000000000000000000000000000000000000000000600052601160045260246000fd5b6000610876826106d0565b915063ffffffff820361088c5761088b61083c565b5b600182019050919050565b600080fd5b6000601f19601f8301169050919050565b7f4e487b7100000000000000000000000000000000000000000000000000000000600052604160045260246000fd5b6108e58261089c565b810181811067ffffffffffffffff82111715610904576109036108ad565b5b80604052505050565b600061091761073e565b905061092382826108dc565b919050565b600080fd5b600080fd5b600080fd5b600067ffffffffffffffff821115610952576109516108ad565b5b61095b8261089c565b9050602081019050919050565b82818337600083830152505050565b600061098a61098584610937565b61090d565b9050828152602081018484840111156109a6576109a5610932565b5b6109b1848285610968565b509392505050565b600082601f8301126109ce576109cd61092d565b5b81356109de848260208601610977565b91505092915050565b6000602082840312156109fd576109fc610897565b5b610a07602061090d565b9050600082013567ffffffffffffffff811115610a2757610a26610928565b5b610a33848285016109b9565b60008301525092915050565b6000610a4b36836109e7565b9050919050565b7f4e487b7100000000000000000000000000000000000000000000000000000000600052601260045260246000fd5b6000610a8c8261070a565b9150610a978361070a565b925082610aa757610aa6610a52565b5b828206905092915050565b6000610abd826106d0565b9150610ac8836106d0565b925082610ad857610ad7610a52565b5b828204905092915050565b600060ff82169050919050565b610af981610ae3565b82525050565b600081519050919050565b600082825260208201905092915050565b60005b83811015610b39578082015181840152602081019050610b1e565b60008484015250505050565b6000610b5082610aff565b610b5a8185610b0a565b9350610b6a818560208601610b1b565b610b738161089c565b840191505092915050565b6000604082019050610b936000830185610af0565b8181036020830152610ba58184610b45565b90509392505050565b610bb78161070a565b8114610bc257600080fd5b50565b600081519050610bd481610bae565b92915050565b600060208284031215610bf057610bef610748565b5b6000610bfe84828501610bc5565b91505092915050565b6000610c1a610c1584610937565b61090d565b905082815260208101848484011115610c3657610c35610932565b5b610c41848285610b1b565b509392505050565b600082601f830112610c5e57610c5d61092d565b5b8151610c6e848260208601610c07565b91505092915050565b600060208284031215610c8d57610c8c610748565b5b600082015167ffffffffffffffff811115610cab57610caa61074d565b5b610cb784828501610c49565b91505092915050565b6000606082019050610cd56000830186610af0565b8181036020830152610ce78185610b45565b90508181036040830152610cfb8184610b45565b9050949350505050565b60006040820190508181036000830152610d1f8185610b45565b9050610d2e6020830184610af0565b939250505056fea264697066735822122059a85cafddcb1e5d8a78cedf9f6778e58b04b68413da3196f875cf8cbfcf751764736f6c63430008190033",
    "linkReferences": {},
    "deployedLinkReferences": {}
}